:100000002EEF01F072EF01F0046ED8CF05F0E0CFD3
:1000100006F00001E9CF0CF0EACF07F0E1CF08F0DD
:10002000E2CF09F0D9CF0AF0DACF0BF0F3CF12F01C
:10003000F4CF13F0FACF14F0F5CF15F0F6CF16F099
:10004000F7CF17F000C00EF001C00FF002C010F0A3
:1000500003C011F09DAA30EF00F09EBA57EF00F0F8
:100060000EC000F00FC001F010C002F011C003F08C
:100070000CC0E9FF07C0EAFF078E08C0E1FF09C016
:10008000E2FF0AC0D9FF0BC0DAFF12C0F3FF13C0B2
:10009000F4FF14C0FAFF15C0F5FF16C0F6FF17C035
:1000A000F7FF045006C0E0FF05C0D8FF10009EAA6D
:1000B000FED7AECF32F09E9A30EF00F0EA6A340EEF
:1000C000E96EEF500DE0060E016E006A002EFED7BD
:1000D000012EFBD77B0E006E002EFED7EF2EF3D73E
:1000E0001200956A8C6A040E336EFA0E346EE6DFE7
:1000F000332EFBD7956AE00E8C6E040E336EFA0E2B
:10010000346EDCDF332EFBD776EF01F0956A800E7C
:100110008C6E020E336EFA0E346ED0DF332EFBD7A8
:10012000956AC00E8C6E020E336EFA0E346EC6DF08
:10013000332EFBD7956A600E8C6E020E336EFA0E6C
:10014000346EBCDF332EFBD7956A200E8C6E020E08
:10015000336EFA0E346EB2DF332EFBD77AEF01F036
:10016000926A010E896E926A020E896E336EFA0EE1
:10017000346EA4DF332EFBD7926A040E896E020E12
:10018000336EFA0E346E9ADF332EFBD7926A060E68
:10019000896E020E336EFA0E346E90DF332EFBD76B
:1001A000926A080E896E020E336EFA0E346E86DF86
:1001B000332EFBD7926A0A0E896E020E336EFA0E48
:1001C000346E7CDF332EFBD7926A0C0E896E020EE2
:1001D000336EFA0E346E72DF332EFBD7926A0E0E38
:1001E000896E020E336EFA0E346E68DF332EFBD743
:1001F000926A200E896E020E336EFA0E346E5EDF46
:10020000332EFBD7926A220E896E020E336EFA0EDF
:10021000346E54DF332EFBD77EEF01F0956A800EEB
:100220008C6E040E336EFA0E346E48DF332EFBD71D
:10023000956A400E8C6E040E336EFA0E346E3EDFFD
:10024000332EFBD7956A200E8C6E040E336EFA0E99
:10025000346E34DF332EFBD782EF01F0F86AD09E84
:10026000078EEA6AE96A810EAF6EA20EAC6E900E3E
:10027000AB6E1F80C180C182C184C196070EB46E6F
:10028000196A1A6AC180C182C184C196C2909698C7
:10029000C69A949A94889496010EC66E000EC76E04
:1002A000D190800ED56ECD6A000ECA6E000ECB6E58
:1002B000B16A070EB46E9550956E9650966E100EFC
:1002C000006E002EFED70000B450A19CB56A9D8A36
:1002D000C00EF212D26A2F0E926EFD0E946EE00ED8
:1002E000956E90D63250630801E1FBD632506A0811
:1002F00001E10CD73250740801E132D7325068085E
:0803000001E18CD7EFD70300E7
:020000040030CA
:0E00000000270C0E000081000FC00FE00F4023
:00000001FF
;PIC18F458
;CRC=C729  CREATED="20-mai-13 22:32"
