:100000002BEF01F06DEF01F0046ED8CF05F0E0CFDB
:1000100006F00001E9CF0CF0EACF07F0E1CF08F0DD
:10002000E2CF09F0D9CF0AF0DACF0BF0F3CF12F01C
:10003000F4CF13F0FACF14F0F5CF15F0F6CF16F099
:10004000F7CF17F000C00EF001C00FF002C010F0A3
:1000500003C011F09DAA30EF00F09EBA57EF00F0F8
:100060000EC000F00FC001F010C002F011C003F08C
:100070000CC0E9FF07C0EAFF078E08C0E1FF09C016
:10008000E2FF0AC0D9FF0BC0DAFF12C0F3FF13C0B2
:10009000F4FF14C0FAFF15C0F5FF16C0F6FF17C035
:1000A000F7FF045006C0E0FF05C0D8FF10009EAA6D
:1000B000FED7AECF32F09E9A30EF00F0EA6A340EEF
:1000C000E96EEF500DE0060E016E006A002EFED7BD
:1000D000012EFBD77B0E006E002EFED7EF2EF3D73E
:1000E0001200956A8C6A040E336EFA0E346EE6DFE7
:1000F000332EFBD7956AE00E8C6E040E336EFA0E2B
:10010000346EDCDF332EFBD771EF01F0956A800E81
:100110008C6E020E336EFA0E346ED0DF332EFBD7A8
:10012000956AC00E8C6E020E336EFA0E346EC6DF08
:10013000332EFBD7956A600E8C6E020E336EFA0E6C
:10014000346EBCDF332EFBD7956A200E8C6E020E08
:10015000336EFA0E346EB2DF332EFBD775EF01F03B
:10016000926A020E896E336EFA0E346EA7DF332E5A
:10017000FBD7926A040E896E020E336EFA0E346E4D
:100180009DDF332EFBD7926A060E896E020E336E08
:10019000FA0E346E93DF332EFBD7926A080E896E07
:1001A000020E336EFA0E346E89DF332EFBD7926A5D
:1001B0000A0E896E020E336EFA0E346E7FDF332E16
:1001C000FBD7926A0C0E896E020E336EFA0E346EF5
:1001D00075DF332EFBD7926A0E0E896E020E336ED8
:1001E000FA0E346E6BDF332EFBD7926A100E896ED7
:1001F000020E336EFA0E346E61DF332EFBD7926A35
:10020000120E896E020E336EFA0E346E57DF332EE5
:10021000FBD779EF01F0956A800E8C6E040E336E79
:10022000FA0E346E4BDF332EFBD7956A400E8C6E80
:10023000040E336EFA0E346E41DF332EFBD7956A0F
:10024000200E8C6E040E336EFA0E346E37DF332EB2
:10025000FBD77DEF01F0F86AD09E078EEA6AE96A63
:10026000810EAF6EA20EAC6E900EAB6E1F80C18081
:10027000C182C184C196070EB46E196A1A6AC18020
:10028000C182C184C196C2909698C69A949A948865
:100290009496010EC66E000EC76ED190800ED56E7C
:1002A000CD6A000ECA6E000ECB6EB16A070EB46E38
:1002B0009550956E9650966E100E006E002EFED7DD
:1002C0000000B450A19CB56A9D8AC00EF212D26A99
:1002D000FD0E946E000E956E95D63250630801E1C6
:1002E00000D732506A0801E111D73250740801E199
:0E02F00037D73250680801E18ED7EFD70300F0
:020000040030CA
:0E00000000270C0E000081000FC00FE00F4023
:00000001FF
;PIC18F458
;CRC=7F7F  CREATED="20-mai-13 22:15"
